:100000000C9462000C948A000C948A000C948A0070
:100010000C948A000C948A000C948A000C948A0038
:100020000C948A000C948A000C948A000C948A0028
:100030000C948A000C948A000C948A000C948A0018
:100040000C9470040C948A000C943E040C941804D4
:100050000C948A000C948A000C948A000C948A00F8
:100060000C948A000C948A000000000024002700F1
:100070002A0000000000250028002B0000000000DE
:1000800023002600290004040404040404040202DA
:100090000202020203030303030301020408102007
:1000A0004080010204081020010204081020000012
:1000B0000008000201000003040700000000000027
:1000C0000000BA0411241FBECFEFD8E0DEBFCDBFC1
:1000D00011E0A0E0B1E0E6E0FDE002C005900D9285
:1000E000A231B107D9F721E0A2E1B1E001C01D9230
:1000F000A23DB207E1F710E0C2E6D0E004C02197CC
:10010000FE010E944506C136D107C9F70E941F05AE
:100110000C9481060C940000AF92BF92CF92DF92B4
:10012000EF92FF920F931F93CF93DF936C017B01AC
:100130008B01040F151FEB015E01AE18BF08C0173D
:10014000D10759F06991D601ED91FC910190F081B0
:10015000E02DC6010995892B79F7C501DF91CF9173
:100160001F910F91FF90EF90DF90CF90BF90AF90D5
:100170000895FC01538D448D252F30E0842F90E0AD
:10018000821B930B541710F0CF9608950197089592
:10019000FC01918D828D981761F0A28DAE0FBF2F5B
:1001A000B11D5D968C91928D9F5F9F73928F90E0B1
:1001B00008958FEF9FEF0895FC01918D828D981720
:1001C00031F0828DE80FF11D858D90E008958FEF5D
:1001D0009FEF0895FC01918D228D892F90E0805C26
:1001E0009F4F821B91098F73992708958BE191E0AE
:1001F0000E94EA0021E0892B09F420E0822F089573
:1002000080E090E0892B29F00E94F60081110C9487
:1002100000000895FC01A48DA80FB92FB11DA35AA9
:10022000BF4F2C91848D90E001968F739927848F16
:10023000A689B7892C93A089B1898C918370806439
:100240008C93938D848D981306C00288F389E02DDA
:1002500080818F7D80830895EF92FF920F931F938B
:10026000CF93DF93EC0181E0888F9B8D8C8D981369
:100270001AC0E889F989808185FF15C09FB7F89475
:10028000EE89FF896083E889F989808183708064C1
:1002900080839FBF81E090E0DF91CF911F910F910C
:1002A000FF90EF900895F62E0B8D10E00F5F1F4F1B
:1002B0000F731127E02E8C8D8E110CC00FB607FC2A
:1002C000FACFE889F989808185FFF5CFCE010E94B8
:1002D0000A01F1CFEB8DEC0FFD2FF11DE35AFF4F1B
:1002E000F0829FB7F8940B8FEA89FB898081806246
:1002F000CFCFCF93DF93EC01888D8823B9F0AA8903
:10030000BB89E889F9898C9185FD03C0808186FDD0
:100310000DC00FB607FCF7CF8C9185FFF2CF80811F
:1003200085FFEDCFCE010E940A01E9CFDF91CF9189
:100330000895833081F028F4813099F08230A9F05B
:1003400008958730A9F08830C9F08430B1F48091E5
:1003500080008F7D03C0809180008F778093800024
:10036000089584B58F7784BD089584B58F7DFBCFC4
:100370008091B0008F778093B00008958091B00095
:100380008F7DF9CFCF93DF93282F30E0F901E2552D
:10039000FF4F8491F901E656FF4FD491F901EA57D6
:1003A000FF4FC491CC23A1F081110E949901EC2F41
:1003B000F0E0EE0FFF1FE458FF4FA591B491EC91D0
:1003C000ED2381E090E009F480E0DF91CF91089582
:1003D00080E090E0FACF1F93CF93DF93282F30E097
:1003E000F901E255FF4F8491F901E656FF4FD49190
:1003F000F901EA57FF4FC491CC23A9F0162F8111C0
:100400000E949901EC2FF0E0EE0FFF1FEE58FF4F16
:10041000A591B4918FB7F894EC91111108C0D095C3
:10042000DE23DC938FBFDF91CF911F910895DE2BE8
:10043000F8CFCF93DF93EC018091C0019091C1017F
:10044000029749F4C130D10509F43BC06CF560E076
:10045000209709F437C08091C0019091C1010497A1
:1004600049F4C130D10509F45CC00CF037C02097C5
:1004700009F442C08091C0019091C101059709F033
:10048000E5C0CA30D10508F0E1C0FE01E65BFD4FD2
:100490000C944506A902B502C602DC02F702F90275
:1004A00000030C031D032403C230D105A9F060E052
:1004B000C330D10581F68091C4010E94EB0160E058
:1004C00006C061E08091C4010E94EB0161E080916F
:1004D000C6010E94EB01BFCF61E0EDCFC230D10574
:1004E00039F1C330D10509F0C5CF61E08091C40175
:1004F0000E94EB0160E022C061E08091C4010E9493
:10050000EB0160E08091C6010E94EB0161E0809107
:10051000C8010E94EB0160E08091CA010E94EB01DA
:10052000A9CF60E08091C4010E94EB0161E0EACFB5
:1005300060E08091C4010E94EB0161E08091C601FE
:100540000E94EB0160E08091C8010E94EB0161E034
:10055000E3CF60E08091C4010E94EB0161E08091F3
:10056000C6010E94EB0161E00BC060E08091C40114
:100570000E94EB0161E08091C6010E94EB0160E006
:100580008091C8010E94EB0160E010C060E08091A2
:10059000C4010E94EB0161E08091C6010E94EB0161
:1005A00060E08091C8010E94EB0161E08091CA0186
:1005B0000E94EB0161E015C060E08091C4010E94DF
:1005C000EB0161E08091C6010E94EB0160E0809147
:1005D000C8010E94EB0161E08091CA010E94EB0119
:1005E00060E08091CC01DF91CF910C94EB0161E050
:1005F000E4CF61E08091C4010E94EB0160E0E2CFB2
:1006000061E08091C4010E94EB0160E08091C6012D
:100610000E94EB0161E0DBCF61E08091C4010E94A8
:10062000EB0160E08091C6010E94EB0161E08091E6
:10063000C8010E94EB0160E0CFCF61E08091C4016E
:100640000E94EB0160E08BCF60E0F8CFDF91CF91AB
:1006500008958F929F92AF92BF92EF92FF920F9365
:100660001F93CF93DF93EC0197FF04C0CC27DD27C6
:10067000C81BD90B181619060CF082C081E090E057
:100680009093B9018093B80104E010E05AE0E52EA0
:10069000F12C209709F490C03FB7F894809117018E
:1006A00090911801A0911901B0911A0126B5A89B4B
:1006B00005C02F3F19F00196A11DB11D3FBFBA2FF4
:1006C000A92F982F8827820F911DA11DB11D42E0EF
:1006D000880F991FAA1FBB1F4A95D1F74091CE01E1
:1006E0005091CF016091D0017091D1014C015D0119
:1006F000841A950AA60AB70A4091BA015091BB0123
:100700006091BC017091BD0184169506A606B706DE
:1007100008F4BFCF8093CE019093CF01A093D00176
:10072000B093D1018091C2019091C3012091B80191
:100730003091B9012130310559F501969093C301EB
:100740008093C2012091BE013091BF0182179307AF
:1007500021F41092C3011092C20121978091C2012D
:100760009091C3012091C0013091C101B7012530A2
:10077000310509F0B8010E9412060E94190289CFC2
:10078000892B09F481CF1092B9011092B8017CCF66
:10079000892B41F48091BE019091BF019093C301D8
:1007A0008093C2018091C2019091C30101979093FF
:1007B000C3018093C201D1CFDF91CF911F910F91DF
:1007C000FF90EF90BF90AF909F908F900895CF9340
:1007D000DF9390E0FC01E656FF4F24918A579F4F2C
:1007E000FC0184918823D1F090E0880F991FFC01CF
:1007F000E859FF4FA591B491FC01EE58FF4FC59108
:10080000D491623071F49FB7F8943C91822F809517
:1008100083238C93E8812E2B28839FBFDF91CF9178
:1008200008958FB7F894EC912E2B2C938FBFF6CFB1
:100830001F920F920FB60F9211242F933F934F9355
:100840005F936F937F938F939F93AF93BF93EF9338
:10085000FF938BE191E00E940A01FF91EF91BF911C
:10086000AF919F918F917F916F915F914F913F9148
:100870002F910F900FBE0F901F9018951F920F92FF
:100880000FB60F9211242F938F939F93EF93FF93A3
:10089000E0912B01F0912C018081E0913101F091E8
:1008A000320182FD1BC09081809134018F5F8F7374
:1008B00020913501821741F0E0913401F0E0E55ECE
:1008C000FE4F958F80933401FF91EF919F918F910F
:1008D0002F910F900FBE0F901F9018958081F4CF2D
:1008E0001F920F920FB60F9211242F933F938F9365
:1008F0009F93AF93BF938091130190911401A091A6
:100900001501B09116013091120123E0230F2D370C
:1009100058F50196A11DB11D20931201809313017A
:1009200090931401A0931501B093160180911701C3
:1009300090911801A0911901B0911A010196A11D81
:10094000B11D8093170190931801A0931901B093E2
:100950001A01BF91AF919F918F913F912F910F906D
:100960000FBE0F901F90189526E8230F0296A11D29
:10097000B11DD2CFCF93DF93EBE1F1E0138212826E
:1009800088EE93E0A0E0B0E084839583A683B783EC
:1009900084E091E09183808385EC90E09587848763
:1009A00084EC90E09787868780EC90E0918B808B39
:1009B00081EC90E0938B828B82EC90E0958B848B22
:1009C00086EC90E0978B868B118E128E138E148E90
:1009D000C8EBD1E01B861A86198218821E8A1F8AEC
:1009E000188E198E88E592E09F838E8388E090E0D0
:1009F0009D878C8789E090E09F878E878AE090E0D2
:100A0000998B888B8BE090E09B8B8A8B61E088E0F0
:100A10000E94E70361E08E850E94E70361E0888918
:100A20000E94E70361E08A890E94E7031D8A1C8A0D
:100A300084E090E099878887DF91CF91089578943A
:100A400084B5826084BD84B5816084BD85B58260D3
:100A500085BD85B5816085BD80916E008160809384
:100A60006E001092810080918100826080938100ED
:100A700080918100816080938100809180008160FD
:100A8000809380008091B10084608093B100809158
:100A9000B00081608093B00080917A008460809380
:100AA0007A0080917A00826080937A0080917A0047
:100AB000816080937A0080917A00806880937A00C8
:100AC0001092C100E0912B01F0912C0182E0808313
:100AD000E0912701F09128011082E0912901F09125
:100AE0002A018FEC808310923301E0912F01F09165
:100AF000300186E08083E0912D01F0912E0180810C
:100B000080618083E0912D01F0912E0180818860C9
:100B10008083E0912D01F0912E0180818068808397
:100B2000E0912D01F0912E0180818F7D80832091B5
:100B3000BE013091BF01032E000C440B550B60E049
:100B400077E883E993E00E942606CA01B90122E30F
:100B500030E040E050E00E9426062093BA01309336
:100B6000BB014093BC015093BD0162E08CE00E9448
:100B7000E70362E087E00E94E70362E086E00E940C
:100B8000E70362E085E00E94E703C0E0D0E08CE08C
:100B90000E94C20187E00E94C20187E00E94C20158
:100BA000019769F48AE69FEF0E942903209779F361
:100BB0000E94F600882359F30E940000E8CF87E0E6
:100BC0000E94C201892B91F78CE00E94C2018CE047
:100BD0000E94C201892B99F788E592E00E942903BF
:100BE0008CE00E94C201892B51F78CE00E94C20167
:100BF00085E00E94C20186E00E94C20186E00E9458
:100C0000C201892B29F484E690E00E942903F6CFE3
:100C100085E00E94C201892B19F78CE99FEF0E94A1
:100C20002903F6CF97FB072E16F4009407D077FD23
:100C300009D00E944B0607FC05D03EF490958195A3
:100C40009F4F0895709561957F4F0895052E97FBEE
:100C50001EF400940E943D0657FD07D00E945F06D7
:100C600007FC03D04EF40C943D065095409530950A
:100C700021953F4F4F4F5F4F089590958095709508
:100C800061957F4F8F4F9F4F0895EE0FFF1F059087
:100C9000F491E02D0994AA1BBB1B51E107C0AA1FC8
:100CA000BB1FA617B70710F0A61BB70B881F991F0D
:100CB0005A95A9F780959095BC01CD010895A1E2C0
:100CC0001A2EAA1BBB1BFD010DC0AA1FBB1FEE1FC6
:100CD000FF1FA217B307E407F50720F0A21BB30B11
:100CE000E40BF50B661F771F881F991F1A9469F78D
:100CF00060957095809590959B01AC01BD01CF01E9
:060D00000895F894FFCFF6
:100D0600000000002C018C00B9007901EA00C8003F
:020D1600DC00FF
:00000001FF
